{
  "contractName": "Hellodata",
  "abi": [
    {
      "inputs": [],
      "payable": false,
      "stateMutability": "nonpayable",
      "type": "constructor"
    },
    {
      "constant": true,
      "inputs": [
        {
          "internalType": "uint256",
          "name": "",
          "type": "uint256"
        }
      ],
      "name": "dataMap",
      "outputs": [
        {
          "internalType": "bytes",
          "name": "_signature",
          "type": "bytes"
        },
        {
          "internalType": "string",
          "name": "MId",
          "type": "string"
        },
        {
          "internalType": "uint16",
          "name": "PAvg",
          "type": "uint16"
        },
        {
          "internalType": "string",
          "name": "IEnd",
          "type": "string"
        },
        {
          "internalType": "bool",
          "name": "verified",
          "type": "bool"
        }
      ],
      "payable": false,
      "stateMutability": "view",
      "type": "function"
    },
    {
      "constant": true,
      "inputs": [],
      "name": "owner",
      "outputs": [
        {
          "internalType": "address",
          "name": "",
          "type": "address"
        }
      ],
      "payable": false,
      "stateMutability": "view",
      "type": "function"
    },
    {
      "constant": true,
      "inputs": [],
      "name": "testString",
      "outputs": [
        {
          "internalType": "string",
          "name": "",
          "type": "string"
        }
      ],
      "payable": false,
      "stateMutability": "view",
      "type": "function"
    },
    {
      "constant": false,
      "inputs": [
        {
          "internalType": "bytes",
          "name": "_signature",
          "type": "bytes"
        },
        {
          "internalType": "string",
          "name": "_MId",
          "type": "string"
        },
        {
          "internalType": "uint16",
          "name": "_PAvg",
          "type": "uint16"
        },
        {
          "internalType": "string",
          "name": "_IEnd",
          "type": "string"
        }
      ],
      "name": "addData",
      "outputs": [],
      "payable": false,
      "stateMutability": "nonpayable",
      "type": "function"
    },
    {
      "constant": false,
      "inputs": [
        {
          "internalType": "string",
          "name": "_input",
          "type": "string"
        }
      ],
      "name": "setString",
      "outputs": [],
      "payable": false,
      "stateMutability": "nonpayable",
      "type": "function"
    }
  ],
  "bytecode": "0x608060405273ce22f625047a7c4175686930ff9e8b3f801f76c6600160006101000a81548173ffffffffffffffffffffffffffffffffffffffff021916908373ffffffffffffffffffffffffffffffffffffffff16021790555034801561006557600080fd5b50336000806101000a81548173ffffffffffffffffffffffffffffffffffffffff021916908373ffffffffffffffffffffffffffffffffffffffff16021790555060006002819055506040518060400160405280600b81526020017f636f6e7374727563746564000000000000000000000000000000000000000000815250600390805190602001906100f99291906100ff565b506101a4565b828054600181600116156101000203166002900490600052602060002090601f016020900481019282601f1061014057805160ff191683800117855561016e565b8280016001018555821561016e579182015b8281111561016d578251825591602001919060010190610152565b5b50905061017b919061017f565b5090565b6101a191905b8082111561019d576000816000905550600101610185565b5090565b90565b610c5f806101b36000396000f3fe608060405234801561001057600080fd5b50600436106100575760003560e01c806308934b941461005c5780637deb0412146101f55780637fcaf666146103ec5780638da5cb5b146104a7578063fb8f0f59146104f1575b600080fd5b6100886004803603602081101561007257600080fd5b8101908080359060200190929190505050610574565b6040518080602001806020018661ffff1661ffff1681526020018060200185151515158152602001848103845289818151815260200191508051906020019080838360005b838110156100e85780820151818401526020810190506100cd565b50505050905090810190601f1680156101155780820380516001836020036101000a031916815260200191505b50848103835288818151815260200191508051906020019080838360005b8381101561014e578082015181840152602081019050610133565b50505050905090810190601f16801561017b5780820380516001836020036101000a031916815260200191505b50848103825286818151815260200191508051906020019080838360005b838110156101b4578082015181840152602081019050610199565b50505050905090810190601f1680156101e15780820380516001836020036101000a031916815260200191505b509850505050505050505060405180910390f35b6103ea6004803603608081101561020b57600080fd5b810190808035906020019064010000000081111561022857600080fd5b82018360208201111561023a57600080fd5b8035906020019184600183028401116401000000008311171561025c57600080fd5b91908080601f016020809104026020016040519081016040528093929190818152602001838380828437600081840152601f19601f820116905080830192505050505050509192919290803590602001906401000000008111156102bf57600080fd5b8201836020820111156102d157600080fd5b803590602001918460018302840111640100000000831117156102f357600080fd5b91908080601f016020809104026020016040519081016040528093929190818152602001838380828437600081840152601f19601f820116905080830192505050505050509192919290803561ffff1690602001909291908035906020019064010000000081111561036457600080fd5b82018360208201111561037657600080fd5b8035906020019184600183028401116401000000008311171561039857600080fd5b91908080601f016020809104026020016040519081016040528093929190818152602001838380828437600081840152601f19601f82011690508083019250505050505050919291929050505061078d565b005b6104a56004803603602081101561040257600080fd5b810190808035906020019064010000000081111561041f57600080fd5b82018360208201111561043157600080fd5b8035906020019184600183028401116401000000008311171561045357600080fd5b91908080601f016020809104026020016040519081016040528093929190818152602001838380828437600081840152601f19601f820116905080830192505050505050509192919290505050610897565b005b6104af6108b1565b604051808273ffffffffffffffffffffffffffffffffffffffff1673ffffffffffffffffffffffffffffffffffffffff16815260200191505060405180910390f35b6104f96108d6565b6040518080602001828103825283818151815260200191508051906020019080838360005b8381101561053957808201518184015260208101905061051e565b50505050905090810190601f1680156105665780820380516001836020036101000a031916815260200191505b509250505060405180910390f35b6004602052806000526040600020600091509050806000018054600181600116156101000203166002900480601f0160208091040260200160405190810160405280929190818152602001828054600181600116156101000203166002900480156106205780601f106105f557610100808354040283529160200191610620565b820191906000526020600020905b81548152906001019060200180831161060357829003601f168201915b505050505090806001018054600181600116156101000203166002900480601f0160208091040260200160405190810160405280929190818152602001828054600181600116156101000203166002900480156106be5780601f10610693576101008083540402835291602001916106be565b820191906000526020600020905b8154815290600101906020018083116106a157829003601f168201915b5050505050908060020160009054906101000a900461ffff1690806003018054600181600116156101000203166002900480601f0160208091040260200160405190810160405280929190818152602001828054600181600116156101000203166002900480156107705780601f1061074557610100808354040283529160200191610770565b820191906000526020600020905b81548152906001019060200180831161075357829003601f168201915b5050505050908060040160009054906101000a900460ff16905085565b600061079882610974565b905060008090506040518060a001604052808781526020018681526020018561ffff16815260200184815260200182151581525060046000600254815260200190815260200160002060008201518160000190805190602001906107fd929190610a85565b50602082015181600101908051906020019061081a929190610b05565b5060408201518160020160006101000a81548161ffff021916908361ffff160217905550606082015181600301908051906020019061085a929190610b05565b5060808201518160040160006101000a81548160ff0219169083151502179055509050506001600260008282540192505081905550505050505050565b80600390805190602001906108ad929190610b85565b5050565b6000809054906101000a900473ffffffffffffffffffffffffffffffffffffffff1681565b60038054600181600116156101000203166002900480601f01602080910402602001604051908101604052809291908181526020018280546001816001161561010002031660029004801561096c5780601f106109415761010080835404028352916020019161096c565b820191906000526020600020905b81548152906001019060200180831161094f57829003601f168201915b505050505081565b60006002826040516020018082805190602001908083835b602083106109af578051825260208201915060208101905060208303925061098c565b6001836020036101000a0380198251168184511680821785525050505050509050019150506040516020818303038152906040526040518082805190602001908083835b60208310610a1657805182526020820191506020810190506020830392506109f3565b6001836020036101000a038019825116818451168082178552505050505050905001915050602060405180830381855afa158015610a58573d6000803e3d6000fd5b5050506040513d6020811015610a6d57600080fd5b81019080805190602001909291905050509050919050565b828054600181600116156101000203166002900490600052602060002090601f016020900481019282601f10610ac657805160ff1916838001178555610af4565b82800160010185558215610af4579182015b82811115610af3578251825591602001919060010190610ad8565b5b509050610b019190610c05565b5090565b828054600181600116156101000203166002900490600052602060002090601f016020900481019282601f10610b4657805160ff1916838001178555610b74565b82800160010185558215610b74579182015b82811115610b73578251825591602001919060010190610b58565b5b509050610b819190610c05565b5090565b828054600181600116156101000203166002900490600052602060002090601f016020900481019282601f10610bc657805160ff1916838001178555610bf4565b82800160010185558215610bf4579182015b82811115610bf3578251825591602001919060010190610bd8565b5b509050610c019190610c05565b5090565b610c2791905b80821115610c23576000816000905550600101610c0b565b5090565b9056fea265627a7a7231582032f1ac667a1f77e85f711b11c1bc33cd34c8d91da3182ed0657ece6a59a5cfef64736f6c63430005100032",
  "source": "pragma solidity 0.5.16;\n\ncontract Hellodata {\n    struct DataBatch {\n        bytes _signature;\n        string MId;\n        uint16 PAvg;\n        string IEnd;\n        bool verified;\n    }\n\n    address public owner;\n    // results from taking last 20 bytes of Keccak-256 hashed public key 0xce22f625047a7c4175686930ff9e8b3f801f76c6\n    address internal verifier = 0xcE22f625047a7c4175686930ff9e8b3f801F76C6;\n    uint256 internal _dataCount;\n    string public testString;\n    mapping(uint256 => DataBatch) public dataMap;\n\n    constructor() public {\n        owner = msg.sender;\n        _dataCount = 0;\n        testString = \"constructed\";\n    }\n\n    function verifySignature(bytes memory _signature, bytes32 _hash)\n        internal\n        view\n        returns (bool)\n    {\n        return recover(_hash, _signature) == verifier;\n    }\n\n    function hashString(string memory _input) internal pure returns (bytes32) {\n        return sha256(abi.encodePacked(_input));\n    }\n\n    function addData(\n        bytes memory _signature,\n        string memory _MId,\n        uint16 _PAvg,\n        string memory _IEnd\n    ) public {\n        bytes32 _hash = hashString(_IEnd);\n        bool _verified = false;\n        //bool _verified = verifySignature(_signature, _hash);\n        dataMap[_dataCount] = DataBatch(\n            _signature,\n            _MId,\n            _PAvg,\n            _IEnd,\n            _verified\n        );\n        _dataCount += 1;\n    }\n\n    function setString(string memory _input) public {\n        testString = _input;\n    }\n\n    function recover(bytes32 hash, bytes memory sig)\n        internal\n        pure\n        returns (address)\n    {\n        bytes32 r;\n        bytes32 s;\n        uint8 v;\n\n        // Check the signature length\n        if (sig.length != 65) {\n            return (address(0));\n        }\n\n        // Divide the signature in r, s and v variables\n        // ecrecover takes the signature parameters, and the only way to get them\n        // currently is to use assembly.\n        // solium-disable-next-line security/no-inline-assembly\n        assembly {\n            r := mload(add(sig, 32))\n            s := mload(add(sig, 64))\n            v := byte(0, mload(add(sig, 96)))\n        }\n\n        // Version of signature should be 27 or 28, but 0 and 1 are also possible versions\n        if (v < 27) {\n            v += 27;\n        }\n\n        // If the version is correct return the signer address\n        if (v != 27 && v != 28) {\n            return (address(0));\n        } else {\n            // solium-disable-next-line arg-overflow\n            return ecrecover(hash, v, r, s);\n        }\n    }\n}\n",
  "sourcePath": "/Users/johannHartmann 1/Documents/Code/mvp_tee/sc/contracts/Hellodata.sol",
  "compiler": {
    "name": "solc",
    "version": "0.5.16+commit.9c3226ce.Emscripten.clang"
  },
  "schemaVersion": "3.4.1",
  "updatedAt": "2021-09-28T14:55:07.536Z",
  "networkType": "ethereum",
  "devdoc": {
    "methods": {}
  },
  "userdoc": {
    "methods": {}
  }
}