{
  "contractName": "Hellodata",
  "abi": [
    {
      "inputs": [],
      "payable": false,
      "stateMutability": "nonpayable",
      "type": "constructor"
    },
    {
      "constant": true,
      "inputs": [
        {
          "internalType": "uint256",
          "name": "",
          "type": "uint256"
        }
      ],
      "name": "dataMap",
      "outputs": [
        {
          "internalType": "string",
          "name": "_signature",
          "type": "string"
        },
        {
          "internalType": "uint16",
          "name": "_data",
          "type": "uint16"
        }
      ],
      "payable": false,
      "stateMutability": "view",
      "type": "function"
    },
    {
      "constant": true,
      "inputs": [],
      "name": "owner",
      "outputs": [
        {
          "internalType": "address",
          "name": "",
          "type": "address"
        }
      ],
      "payable": false,
      "stateMutability": "view",
      "type": "function"
    },
    {
      "constant": false,
      "inputs": [
        {
          "internalType": "string",
          "name": "_signature",
          "type": "string"
        },
        {
          "internalType": "uint16",
          "name": "_data",
          "type": "uint16"
        }
      ],
      "name": "addData",
      "outputs": [],
      "payable": false,
      "stateMutability": "nonpayable",
      "type": "function"
    }
  ],
  "bytecode": "0x608060405234801561001057600080fd5b50336000806101000a81548173ffffffffffffffffffffffffffffffffffffffff021916908373ffffffffffffffffffffffffffffffffffffffff160217905550600060018190555061045f806100686000396000f3fe608060405234801561001057600080fd5b50600436106100415760003560e01c806308934b94146100465780638da5cb5b146100fc578063cfc23a4114610146575b600080fd5b6100726004803603602081101561005c57600080fd5b810190808035906020019092919050505061020f565b60405180806020018361ffff1661ffff168152602001828103825284818151815260200191508051906020019080838360005b838110156100c05780820151818401526020810190506100a5565b50505050905090810190601f1680156100ed5780820380516001836020036101000a031916815260200191505b50935050505060405180910390f35b6101046102d9565b604051808273ffffffffffffffffffffffffffffffffffffffff1673ffffffffffffffffffffffffffffffffffffffff16815260200191505060405180910390f35b61020d6004803603604081101561015c57600080fd5b810190808035906020019064010000000081111561017957600080fd5b82018360208201111561018b57600080fd5b803590602001918460018302840111640100000000831117156101ad57600080fd5b91908080601f016020809104026020016040519081016040528093929190818152602001838380828437600081840152601f19601f820116905080830192505050505050509192919290803561ffff1690602001909291905050506102fe565b005b6002602052806000526040600020600091509050806000018054600181600116156101000203166002900480601f0160208091040260200160405190810160405280929190818152602001828054600181600116156101000203166002900480156102bb5780601f10610290576101008083540402835291602001916102bb565b820191906000526020600020905b81548152906001019060200180831161029e57829003601f168201915b5050505050908060010160009054906101000a900461ffff16905082565b6000809054906101000a900473ffffffffffffffffffffffffffffffffffffffff1681565b60405180604001604052808381526020018261ffff168152506002600060015481526020019081526020016000206000820151816000019080519060200190610348929190610385565b5060208201518160010160006101000a81548161ffff021916908361ffff1602179055509050506001600081548092919060010191905055505050565b828054600181600116156101000203166002900490600052602060002090601f016020900481019282601f106103c657805160ff19168380011785556103f4565b828001600101855582156103f4579182015b828111156103f35782518255916020019190600101906103d8565b5b5090506104019190610405565b5090565b61042791905b8082111561042357600081600090555060010161040b565b5090565b9056fea265627a7a723158208199378b76114718bfc93c3546ecbf25ce0a916001c1f2051e8c8a0b58320bbf64736f6c63430005100032",
  "source": "pragma solidity 0.5.16;\n\ncontract Hellodata {\n    address public owner;\n    uint256 internal _dataCount;\n\n    struct Data {\n        string _signature;\n        uint16 _data; // value might be temperature in celsius stored as an int\n    }\n\n    mapping(uint256 => Data) public dataMap;\n\n    constructor() public {\n        owner = msg.sender;\n        _dataCount = 0;\n    }\n\n    function addData(string memory _signature, uint16 _data) public {\n        dataMap[_dataCount] = Data(_signature, _data);\n        _dataCount++;\n    }\n}\n",
  "sourcePath": "/Users/johannHartmann 1/Documents/Code/mvp_tee/sc/contracts/Hellodata.sol",
  "compiler": {
    "name": "solc",
    "version": "0.5.16+commit.9c3226ce.Emscripten.clang"
  },
  "schemaVersion": "3.4.1",
  "updatedAt": "2021-07-03T14:03:42.843Z",
  "devdoc": {
    "methods": {}
  },
  "userdoc": {
    "methods": {}
  }
}