{
  "contractName": "Hellodata",
  "abi": [
    {
      "inputs": [],
      "payable": false,
      "stateMutability": "nonpayable",
      "type": "constructor"
    },
    {
      "constant": true,
      "inputs": [
        {
          "internalType": "uint256",
          "name": "",
          "type": "uint256"
        }
      ],
      "name": "dataMap",
      "outputs": [
        {
          "internalType": "string",
          "name": "_signature",
          "type": "string"
        },
        {
          "internalType": "string",
          "name": "MId",
          "type": "string"
        },
        {
          "internalType": "uint16",
          "name": "PAvg",
          "type": "uint16"
        },
        {
          "internalType": "uint64",
          "name": "IEnd",
          "type": "uint64"
        }
      ],
      "payable": false,
      "stateMutability": "view",
      "type": "function"
    },
    {
      "constant": true,
      "inputs": [],
      "name": "owner",
      "outputs": [
        {
          "internalType": "address",
          "name": "",
          "type": "address"
        }
      ],
      "payable": false,
      "stateMutability": "view",
      "type": "function"
    },
    {
      "constant": true,
      "inputs": [],
      "name": "testString",
      "outputs": [
        {
          "internalType": "string",
          "name": "",
          "type": "string"
        }
      ],
      "payable": false,
      "stateMutability": "view",
      "type": "function"
    },
    {
      "constant": false,
      "inputs": [
        {
          "internalType": "string",
          "name": "_signature",
          "type": "string"
        },
        {
          "internalType": "string",
          "name": "_MId",
          "type": "string"
        },
        {
          "internalType": "uint16",
          "name": "_PAvg",
          "type": "uint16"
        },
        {
          "internalType": "uint64",
          "name": "_IEnd",
          "type": "uint64"
        }
      ],
      "name": "addData",
      "outputs": [],
      "payable": false,
      "stateMutability": "nonpayable",
      "type": "function"
    },
    {
      "constant": false,
      "inputs": [
        {
          "internalType": "string",
          "name": "_input",
          "type": "string"
        }
      ],
      "name": "setString",
      "outputs": [],
      "payable": false,
      "stateMutability": "nonpayable",
      "type": "function"
    }
  ],
  "bytecode": "0x608060405234801561001057600080fd5b50336000806101000a81548173ffffffffffffffffffffffffffffffffffffffff021916908373ffffffffffffffffffffffffffffffffffffffff16021790555060006001819055506040518060400160405280600b81526020017f636f6e7374727563746564000000000000000000000000000000000000000000815250600290805190602001906100a49291906100aa565b5061014f565b828054600181600116156101000203166002900490600052602060002090601f016020900481019282601f106100eb57805160ff1916838001178555610119565b82800160010185558215610119579182015b828111156101185782518255916020019190600101906100fd565b5b509050610126919061012a565b5090565b61014c91905b80821115610148576000816000905550600101610130565b5090565b90565b6109378061015e6000396000f3fe608060405234801561001057600080fd5b50600436106100575760003560e01c806308934b941461005c5780633d7b9c42146101995780637fcaf6661461030d5780638da5cb5b146103c8578063fb8f0f5914610412575b600080fd5b6100886004803603602081101561007257600080fd5b8101908080359060200190929190505050610495565b6040518080602001806020018561ffff1661ffff1681526020018467ffffffffffffffff1667ffffffffffffffff168152602001838103835287818151815260200191508051906020019080838360005b838110156100f45780820151818401526020810190506100d9565b50505050905090810190601f1680156101215780820380516001836020036101000a031916815260200191505b50838103825286818151815260200191508051906020019080838360005b8381101561015a57808201518184015260208101905061013f565b50505050905090810190601f1680156101875780820380516001836020036101000a031916815260200191505b50965050505050505060405180910390f35b61030b600480360360808110156101af57600080fd5b81019080803590602001906401000000008111156101cc57600080fd5b8201836020820111156101de57600080fd5b8035906020019184600183028401116401000000008311171561020057600080fd5b91908080601f016020809104026020016040519081016040528093929190818152602001838380828437600081840152601f19601f8201169050808301925050505050505091929192908035906020019064010000000081111561026357600080fd5b82018360208201111561027557600080fd5b8035906020019184600183028401116401000000008311171561029757600080fd5b91908080601f016020809104026020016040519081016040528093929190818152602001838380828437600081840152601f19601f820116905080830192505050505050509192919290803561ffff169060200190929190803567ffffffffffffffff169060200190929190505050610617565b005b6103c66004803603602081101561032357600080fd5b810190808035906020019064010000000081111561034057600080fd5b82018360208201111561035257600080fd5b8035906020019184600183028401116401000000008311171561037457600080fd5b91908080601f016020809104026020016040519081016040528093929190818152602001838380828437600081840152601f19601f820116905080830192505050505050509192919290505050610700565b005b6103d061071a565b604051808273ffffffffffffffffffffffffffffffffffffffff1673ffffffffffffffffffffffffffffffffffffffff16815260200191505060405180910390f35b61041a61073f565b6040518080602001828103825283818151815260200191508051906020019080838360005b8381101561045a57808201518184015260208101905061043f565b50505050905090810190601f1680156104875780820380516001836020036101000a031916815260200191505b509250505060405180910390f35b6003602052806000526040600020600091509050806000018054600181600116156101000203166002900480601f0160208091040260200160405190810160405280929190818152602001828054600181600116156101000203166002900480156105415780601f1061051657610100808354040283529160200191610541565b820191906000526020600020905b81548152906001019060200180831161052457829003601f168201915b505050505090806001018054600181600116156101000203166002900480601f0160208091040260200160405190810160405280929190818152602001828054600181600116156101000203166002900480156105df5780601f106105b4576101008083540402835291602001916105df565b820191906000526020600020905b8154815290600101906020018083116105c257829003601f168201915b5050505050908060020160009054906101000a900461ffff16908060020160029054906101000a900467ffffffffffffffff16905084565b60405180608001604052808581526020018481526020018361ffff1681526020018267ffffffffffffffff1681525060036000600154815260200190815260200160002060008201518160000190805190602001906106779291906107dd565b5060208201518160010190805190602001906106949291906107dd565b5060408201518160020160006101000a81548161ffff021916908361ffff16021790555060608201518160020160026101000a81548167ffffffffffffffff021916908367ffffffffffffffff1602179055509050506001806000828254019250508190555050505050565b806002908051906020019061071692919061085d565b5050565b6000809054906101000a900473ffffffffffffffffffffffffffffffffffffffff1681565b60028054600181600116156101000203166002900480601f0160208091040260200160405190810160405280929190818152602001828054600181600116156101000203166002900480156107d55780601f106107aa576101008083540402835291602001916107d5565b820191906000526020600020905b8154815290600101906020018083116107b857829003601f168201915b505050505081565b828054600181600116156101000203166002900490600052602060002090601f016020900481019282601f1061081e57805160ff191683800117855561084c565b8280016001018555821561084c579182015b8281111561084b578251825591602001919060010190610830565b5b50905061085991906108dd565b5090565b828054600181600116156101000203166002900490600052602060002090601f016020900481019282601f1061089e57805160ff19168380011785556108cc565b828001600101855582156108cc579182015b828111156108cb5782518255916020019190600101906108b0565b5b5090506108d991906108dd565b5090565b6108ff91905b808211156108fb5760008160009055506001016108e3565b5090565b9056fea265627a7a72315820705863f690279a333dc5fba44236c077aaf08a8c2f5a7341ba72582eca46f9b464736f6c63430005100032",
  "source": "pragma solidity 0.5.16;\n\ncontract Hellodata {\n    struct DataBatch {\n        string _signature;\n        string MId;\n        uint16 PAvg;\n        uint64 IEnd;\n    }\n\n    address public owner;\n    uint256 internal _dataCount;\n    string public testString;\n    mapping(uint256 => DataBatch) public dataMap;\n\n    constructor() public {\n        owner = msg.sender;\n        _dataCount = 0;\n        testString = \"constructed\";\n    }\n\n    function addData(\n        string memory _signature,\n        string memory _MId,\n        uint16 _PAvg,\n        uint64 _IEnd\n    ) public {\n        dataMap[_dataCount] = DataBatch(_signature, _MId, _PAvg, _IEnd);\n        _dataCount += 1;\n    }\n\n    function setString(string memory _input) public {\n        testString = _input;\n    }\n}\n",
  "sourcePath": "/Users/johannHartmann 1/Documents/Code/mvp_tee/sc/contracts/Hellodata.sol",
  "compiler": {
    "name": "solc",
    "version": "0.5.16+commit.9c3226ce.Emscripten.clang"
  },
  "schemaVersion": "3.4.1",
  "updatedAt": "2021-08-05T15:40:04.234Z",
  "networkType": "ethereum",
  "devdoc": {
    "methods": {}
  },
  "userdoc": {
    "methods": {}
  }
}