{
  "contractName": "Hellodata",
  "abi": [
    {
      "inputs": [],
      "payable": false,
      "stateMutability": "nonpayable",
      "type": "constructor"
    },
    {
      "constant": true,
      "inputs": [
        {
          "internalType": "uint256",
          "name": "",
          "type": "uint256"
        }
      ],
      "name": "dataMap",
      "outputs": [
        {
          "internalType": "string",
          "name": "_signature",
          "type": "string"
        },
        {
          "internalType": "uint16",
          "name": "_data",
          "type": "uint16"
        }
      ],
      "payable": false,
      "stateMutability": "view",
      "type": "function"
    },
    {
      "constant": true,
      "inputs": [],
      "name": "owner",
      "outputs": [
        {
          "internalType": "address",
          "name": "",
          "type": "address"
        }
      ],
      "payable": false,
      "stateMutability": "view",
      "type": "function"
    },
    {
      "constant": true,
      "inputs": [],
      "name": "testString",
      "outputs": [
        {
          "internalType": "string",
          "name": "",
          "type": "string"
        }
      ],
      "payable": false,
      "stateMutability": "view",
      "type": "function"
    },
    {
      "constant": false,
      "inputs": [
        {
          "internalType": "string",
          "name": "_signature",
          "type": "string"
        },
        {
          "internalType": "uint16",
          "name": "_data",
          "type": "uint16"
        }
      ],
      "name": "addData",
      "outputs": [],
      "payable": false,
      "stateMutability": "nonpayable",
      "type": "function"
    },
    {
      "constant": false,
      "inputs": [
        {
          "internalType": "string",
          "name": "_input",
          "type": "string"
        }
      ],
      "name": "setString",
      "outputs": [],
      "payable": false,
      "stateMutability": "nonpayable",
      "type": "function"
    }
  ],
  "bytecode": "0x608060405234801561001057600080fd5b50336000806101000a81548173ffffffffffffffffffffffffffffffffffffffff021916908373ffffffffffffffffffffffffffffffffffffffff16021790555060006001819055506040518060400160405280600b81526020017f636f6e7374727563746564000000000000000000000000000000000000000000815250600290805190602001906100a49291906100aa565b5061014f565b828054600181600116156101000203166002900490600052602060002090601f016020900481019282601f106100eb57805160ff1916838001178555610119565b82800160010185558215610119579182015b828111156101185782518255916020019190600101906100fd565b5b509050610126919061012a565b5090565b61014c91905b80821115610148576000816000905550600101610130565b5090565b90565b6106e98061015e6000396000f3fe608060405234801561001057600080fd5b50600436106100575760003560e01c806308934b941461005c5780637fcaf666146101125780638da5cb5b146101cd578063cfc23a4114610217578063fb8f0f59146102e0575b600080fd5b6100886004803603602081101561007257600080fd5b8101908080359060200190929190505050610363565b60405180806020018361ffff1661ffff168152602001828103825284818151815260200191508051906020019080838360005b838110156100d65780820151818401526020810190506100bb565b50505050905090810190601f1680156101035780820380516001836020036101000a031916815260200191505b50935050505060405180910390f35b6101cb6004803603602081101561012857600080fd5b810190808035906020019064010000000081111561014557600080fd5b82018360208201111561015757600080fd5b8035906020019184600183028401116401000000008311171561017957600080fd5b91908080601f016020809104026020016040519081016040528093929190818152602001838380828437600081840152601f19601f82011690508083019250505050505050919291929050505061042d565b005b6101d5610447565b604051808273ffffffffffffffffffffffffffffffffffffffff1673ffffffffffffffffffffffffffffffffffffffff16815260200191505060405180910390f35b6102de6004803603604081101561022d57600080fd5b810190808035906020019064010000000081111561024a57600080fd5b82018360208201111561025c57600080fd5b8035906020019184600183028401116401000000008311171561027e57600080fd5b91908080601f016020809104026020016040519081016040528093929190818152602001838380828437600081840152601f19601f820116905080830192505050505050509192919290803561ffff16906020019092919050505061046c565b005b6102e86104f1565b6040518080602001828103825283818151815260200191508051906020019080838360005b8381101561032857808201518184015260208101905061030d565b50505050905090810190601f1680156103555780820380516001836020036101000a031916815260200191505b509250505060405180910390f35b6003602052806000526040600020600091509050806000018054600181600116156101000203166002900480601f01602080910402602001604051908101604052809291908181526020018280546001816001161561010002031660029004801561040f5780601f106103e45761010080835404028352916020019161040f565b820191906000526020600020905b8154815290600101906020018083116103f257829003601f168201915b5050505050908060010160009054906101000a900461ffff16905082565b806002908051906020019061044392919061058f565b5050565b6000809054906101000a900473ffffffffffffffffffffffffffffffffffffffff1681565b60405180604001604052808381526020018261ffff1681525060036000600154815260200190815260200160002060008201518160000190805190602001906104b692919061060f565b5060208201518160010160006101000a81548161ffff021916908361ffff160217905550905050600180600082825401925050819055505050565b60028054600181600116156101000203166002900480601f0160208091040260200160405190810160405280929190818152602001828054600181600116156101000203166002900480156105875780601f1061055c57610100808354040283529160200191610587565b820191906000526020600020905b81548152906001019060200180831161056a57829003601f168201915b505050505081565b828054600181600116156101000203166002900490600052602060002090601f016020900481019282601f106105d057805160ff19168380011785556105fe565b828001600101855582156105fe579182015b828111156105fd5782518255916020019190600101906105e2565b5b50905061060b919061068f565b5090565b828054600181600116156101000203166002900490600052602060002090601f016020900481019282601f1061065057805160ff191683800117855561067e565b8280016001018555821561067e579182015b8281111561067d578251825591602001919060010190610662565b5b50905061068b919061068f565b5090565b6106b191905b808211156106ad576000816000905550600101610695565b5090565b9056fea265627a7a723158205e6741e632a23486ec1c322bbd6bade07ebd820034a18732fd58ed38ba96371864736f6c63430005100032",
  "source": "pragma solidity 0.5.16;\n\ncontract Hellodata {\n    address public owner;\n    uint256 internal _dataCount;\n    string public testString;\n    mapping(uint256 => DataBatch) public dataMap;\n\n    struct DataBatch {\n        string _signature;\n        uint16 _data; // value might be temperature in celsius stored as an int\n    }\n\n    constructor() public {\n        owner = msg.sender;\n        _dataCount = 0;\n        testString = \"constructed\";\n    }\n\n    function addData(string memory _signature, uint16 _data) public {\n        dataMap[_dataCount] = DataBatch(_signature, _data);\n        _dataCount += 1;\n    }\n\n    function setString(string memory _input) public {\n        testString = _input;\n    }\n}\n",
  "sourcePath": "/Users/johannHartmann 1/Documents/Code/mvp_tee/sc/contracts/Hellodata.sol",
  "compiler": {
    "name": "solc",
    "version": "0.5.16+commit.9c3226ce.Emscripten.clang"
  },
  "schemaVersion": "3.4.1",
  "updatedAt": "2021-07-05T10:27:09.441Z",
  "networkType": "ethereum",
  "devdoc": {
    "methods": {}
  },
  "userdoc": {
    "methods": {}
  }
}