{
  "contractName": "Hellodata",
  "abi": [
    {
      "inputs": [],
      "payable": false,
      "stateMutability": "nonpayable",
      "type": "constructor"
    },
    {
      "constant": true,
      "inputs": [
        {
          "internalType": "uint256",
          "name": "",
          "type": "uint256"
        }
      ],
      "name": "dataMap",
      "outputs": [
        {
          "internalType": "string",
          "name": "_signature",
          "type": "string"
        },
        {
          "internalType": "string",
          "name": "MId",
          "type": "string"
        },
        {
          "internalType": "uint16",
          "name": "PAvg",
          "type": "uint16"
        },
        {
          "internalType": "string",
          "name": "IEnd",
          "type": "string"
        },
        {
          "internalType": "bool",
          "name": "verified",
          "type": "bool"
        }
      ],
      "payable": false,
      "stateMutability": "view",
      "type": "function"
    },
    {
      "constant": true,
      "inputs": [],
      "name": "owner",
      "outputs": [
        {
          "internalType": "address",
          "name": "",
          "type": "address"
        }
      ],
      "payable": false,
      "stateMutability": "view",
      "type": "function"
    },
    {
      "constant": true,
      "inputs": [],
      "name": "signLength",
      "outputs": [
        {
          "internalType": "bool",
          "name": "",
          "type": "bool"
        }
      ],
      "payable": false,
      "stateMutability": "view",
      "type": "function"
    },
    {
      "constant": true,
      "inputs": [],
      "name": "testString",
      "outputs": [
        {
          "internalType": "string",
          "name": "",
          "type": "string"
        }
      ],
      "payable": false,
      "stateMutability": "view",
      "type": "function"
    },
    {
      "constant": false,
      "inputs": [
        {
          "internalType": "string",
          "name": "_signature",
          "type": "string"
        },
        {
          "internalType": "string",
          "name": "_MId",
          "type": "string"
        },
        {
          "internalType": "uint16",
          "name": "_PAvg",
          "type": "uint16"
        },
        {
          "internalType": "string",
          "name": "_IEnd",
          "type": "string"
        }
      ],
      "name": "addData",
      "outputs": [],
      "payable": false,
      "stateMutability": "nonpayable",
      "type": "function"
    },
    {
      "constant": false,
      "inputs": [
        {
          "internalType": "string",
          "name": "_input",
          "type": "string"
        }
      ],
      "name": "setString",
      "outputs": [],
      "payable": false,
      "stateMutability": "nonpayable",
      "type": "function"
    }
  ],
  "bytecode": "0x608060405273ce22f625047a7c4175686930ff9e8b3f801f76c6600160006101000a81548173ffffffffffffffffffffffffffffffffffffffff021916908373ffffffffffffffffffffffffffffffffffffffff16021790555034801561006557600080fd5b50336000806101000a81548173ffffffffffffffffffffffffffffffffffffffff021916908373ffffffffffffffffffffffffffffffffffffffff16021790555060006002819055506040518060400160405280600b81526020017f636f6e7374727563746564000000000000000000000000000000000000000000815250600490805190602001906100f99291906100ff565b506101a4565b828054600181600116156101000203166002900490600052602060002090601f016020900481019282601f1061014057805160ff191683800117855561016e565b8280016001018555821561016e579182015b8281111561016d578251825591602001919060010190610152565b5b50905061017b919061017f565b5090565b6101a191905b8082111561019d576000816000905550600101610185565b5090565b90565b610dfe806101b36000396000f3fe608060405234801561001057600080fd5b50600436106100625760003560e01c806308934b94146100675780637fcaf666146102005780638cab8272146102bb5780638da5cb5b146102dd578063ac92f4b414610327578063fb8f0f591461051e575b600080fd5b6100936004803603602081101561007d57600080fd5b81019080803590602001909291905050506105a1565b6040518080602001806020018661ffff1661ffff1681526020018060200185151515158152602001848103845289818151815260200191508051906020019080838360005b838110156100f35780820151818401526020810190506100d8565b50505050905090810190601f1680156101205780820380516001836020036101000a031916815260200191505b50848103835288818151815260200191508051906020019080838360005b8381101561015957808201518184015260208101905061013e565b50505050905090810190601f1680156101865780820380516001836020036101000a031916815260200191505b50848103825286818151815260200191508051906020019080838360005b838110156101bf5780820151818401526020810190506101a4565b50505050905090810190601f1680156101ec5780820380516001836020036101000a031916815260200191505b509850505050505050505060405180910390f35b6102b96004803603602081101561021657600080fd5b810190808035906020019064010000000081111561023357600080fd5b82018360208201111561024557600080fd5b8035906020019184600183028401116401000000008311171561026757600080fd5b91908080601f016020809104026020016040519081016040528093929190818152602001838380828437600081840152601f19601f8201169050808301925050505050505091929192905050506107ba565b005b6102c36107d4565b604051808215151515815260200191505060405180910390f35b6102e56107e7565b604051808273ffffffffffffffffffffffffffffffffffffffff1673ffffffffffffffffffffffffffffffffffffffff16815260200191505060405180910390f35b61051c6004803603608081101561033d57600080fd5b810190808035906020019064010000000081111561035a57600080fd5b82018360208201111561036c57600080fd5b8035906020019184600183028401116401000000008311171561038e57600080fd5b91908080601f016020809104026020016040519081016040528093929190818152602001838380828437600081840152601f19601f820116905080830192505050505050509192919290803590602001906401000000008111156103f157600080fd5b82018360208201111561040357600080fd5b8035906020019184600183028401116401000000008311171561042557600080fd5b91908080601f016020809104026020016040519081016040528093929190818152602001838380828437600081840152601f19601f820116905080830192505050505050509192919290803561ffff1690602001909291908035906020019064010000000081111561049657600080fd5b8201836020820111156104a857600080fd5b803590602001918460018302840111640100000000831117156104ca57600080fd5b91908080601f016020809104026020016040519081016040528093929190818152602001838380828437600081840152601f19601f82011690508083019250505050505050919291929050505061080c565b005b610526610921565b6040518080602001828103825283818151815260200191508051906020019080838360005b8381101561056657808201518184015260208101905061054b565b50505050905090810190601f1680156105935780820380516001836020036101000a031916815260200191505b509250505060405180910390f35b6005602052806000526040600020600091509050806000018054600181600116156101000203166002900480601f01602080910402602001604051908101604052809291908181526020018280546001816001161561010002031660029004801561064d5780601f106106225761010080835404028352916020019161064d565b820191906000526020600020905b81548152906001019060200180831161063057829003601f168201915b505050505090806001018054600181600116156101000203166002900480601f0160208091040260200160405190810160405280929190818152602001828054600181600116156101000203166002900480156106eb5780601f106106c0576101008083540402835291602001916106eb565b820191906000526020600020905b8154815290600101906020018083116106ce57829003601f168201915b5050505050908060020160009054906101000a900461ffff1690806003018054600181600116156101000203166002900480601f01602080910402602001604051908101604052809291908181526020018280546001816001161561010002031660029004801561079d5780601f106107725761010080835404028352916020019161079d565b820191906000526020600020905b81548152906001019060200180831161078057829003601f168201915b5050505050908060040160009054906101000a900460ff16905085565b80600490805190602001906107d0929190610c63565b5050565b600360009054906101000a900460ff1681565b6000809054906101000a900473ffffffffffffffffffffffffffffffffffffffff1681565b6000610817826109bf565b9050600080905061082782610ad0565b90506040518060a001604052808781526020018681526020018561ffff1681526020018481526020018215158152506005600060025481526020019081526020016000206000820151816000019080519060200190610887929190610ce3565b5060208201518160010190805190602001906108a4929190610ce3565b5060408201518160020160006101000a81548161ffff021916908361ffff16021790555060608201518160030190805190602001906108e4929190610ce3565b5060808201518160040160006101000a81548160ff0219169083151502179055509050506001600260008282540192505081905550505050505050565b60048054600181600116156101000203166002900480601f0160208091040260200160405190810160405280929190818152602001828054600181600116156101000203166002900480156109b75780601f1061098c576101008083540402835291602001916109b7565b820191906000526020600020905b81548152906001019060200180831161099a57829003601f168201915b505050505081565b60006002826040516020018082805190602001908083835b602083106109fa57805182526020820191506020810190506020830392506109d7565b6001836020036101000a0380198251168184511680821785525050505050509050019150506040516020818303038152906040526040518082805190602001908083835b60208310610a615780518252602082019150602081019050602083039250610a3e565b6001836020036101000a038019825116818451168082178552505050505050905001915050602060405180830381855afa158015610aa3573d6000803e3d6000fd5b5050506040513d6020811015610ab857600080fd5b81019080805190602001909291905050509050919050565b6000600160009054906101000a900473ffffffffffffffffffffffffffffffffffffffff1673ffffffffffffffffffffffffffffffffffffffff16610b2d83604051806080016040528060418152602001610d8960419139610b4b565b73ffffffffffffffffffffffffffffffffffffffff16149050919050565b6000806000806041855114610b81576001600360006101000a81548160ff02191690831515021790555060009350505050610c5d565b6001600360006101000a81548160ff0219169083151502179055506020850151925060408501519150606085015160001a9050601b8160ff161015610bc757601b810190505b601b8160ff1614158015610bdf5750601c8160ff1614155b15610bf05760009350505050610c5d565b60018682858560405160008152602001604052604051808581526020018460ff1660ff1681526020018381526020018281526020019450505050506020604051602081039080840390855afa158015610c4d573d6000803e3d6000fd5b5050506020604051035193505050505b92915050565b828054600181600116156101000203166002900490600052602060002090601f016020900481019282601f10610ca457805160ff1916838001178555610cd2565b82800160010185558215610cd2579182015b82811115610cd1578251825591602001919060010190610cb6565b5b509050610cdf9190610d63565b5090565b828054600181600116156101000203166002900490600052602060002090601f016020900481019282601f10610d2457805160ff1916838001178555610d52565b82800160010185558215610d52579182015b82811115610d51578251825591602001919060010190610d36565b5b509050610d5f9190610d63565b5090565b610d8591905b80821115610d81576000816000905550600101610d69565b5090565b9056fec28abc60813ae2c08599072f95774cb3380ccaaba2f23c93ee58a29eeb830e14c110703671eaaf5d859c4674a3ea6b9de8a20779394d8df533ab60623d4be08101a265627a7a72315820302aa26173d00d7ce5b0d04a92efdc8be746ae876eda5807f03140ac7446852a64736f6c63430005100032",
  "source": "pragma solidity 0.5.16;\n\ncontract Hellodata {\n    struct DataBatch {\n        string _signature;\n        string MId;\n        uint16 PAvg;\n        string IEnd;\n        bool verified;\n    }\n\n    address public owner;\n    // results from taking last 20 bytes of Keccak-256 hashed public key 0xce22f625047a7c4175686930ff9e8b3f801f76c6\n    address internal verifier = 0xcE22f625047a7c4175686930ff9e8b3f801F76C6;\n    uint256 internal _dataCount;\n    bool public signLength;\n    string public testString;\n    mapping(uint256 => DataBatch) public dataMap;\n\n    constructor() public {\n        owner = msg.sender;\n        _dataCount = 0;\n        testString = \"constructed\";\n    }\n\n    function verifySignature(bytes32 _hash) internal returns (bool) {\n        return\n            recover(\n                _hash,\n                hex\"c28abc60813ae2c08599072f95774cb3380ccaaba2f23c93ee58a29eeb830e14c110703671eaaf5d859c4674a3ea6b9de8a20779394d8df533ab60623d4be08101\"\n            ) == verifier;\n    }\n\n    function hashString(string memory _input) internal pure returns (bytes32) {\n        return sha256(abi.encodePacked(_input));\n    }\n\n    function addData(\n        string memory _signature,\n        string memory _MId,\n        uint16 _PAvg,\n        string memory _IEnd\n    ) public {\n        bytes32 _hash = hashString(_IEnd);\n        bool _verified = false;\n        //bytes memory _toHex = fromHex(_signature);\n        _verified = verifySignature(_hash);\n        dataMap[_dataCount] = DataBatch(\n            _signature,\n            _MId,\n            _PAvg,\n            _IEnd,\n            _verified\n        );\n        _dataCount += 1;\n    }\n\n    function setString(string memory _input) public {\n        testString = _input;\n    }\n\n    function recover(bytes32 hash, bytes memory sig)\n        internal\n        returns (address)\n    {\n        bytes32 r;\n        bytes32 s;\n        uint8 v;\n\n        // Check the signature length\n        if (sig.length != 65) {\n            signLength = true;\n            return (address(0));\n        }\n\n        // Divide the signature in r, s and v variables\n        // ecrecover takes the signature parameters, and the only way to get them\n        // currently is to use assembly.\n        // solium-disable-next-line security/no-inline-assembly\n\n        signLength = true;\n        assembly {\n            r := mload(add(sig, 32))\n            s := mload(add(sig, 64))\n            v := byte(0, mload(add(sig, 96)))\n        }\n\n        // Version of signature should be 27 or 28, but 0 and 1 are also possible versions\n        if (v < 27) {\n            v += 27;\n        }\n\n        // If the version is correct return the signer address\n        if (v != 27 && v != 28) {\n            return (address(0));\n        } else {\n            // solium-disable-next-line arg-overflow\n            return ecrecover(hash, v, r, s);\n        }\n    }\n\n    // helper method\n    function fromHexChar(uint8 c) internal pure returns (uint8) {\n        if (bytes1(c) >= bytes1(\"0\") && bytes1(c) <= bytes1(\"9\")) {\n            return c - uint8(bytes1(\"0\"));\n        }\n        if (bytes1(c) >= bytes1(\"a\") && bytes1(c) <= bytes1(\"f\")) {\n            return 10 + c - uint8(bytes1(\"a\"));\n        }\n        if (bytes1(c) >= bytes1(\"A\") && bytes1(c) <= bytes1(\"F\")) {\n            return 10 + c - uint8(bytes1(\"A\"));\n        }\n    }\n\n    function fromHex(string memory s) internal returns (bytes memory) {\n        bytes memory ss = bytes(s);\n\n        require(ss.length % 2 == 0); // length must be even\n        bytes memory r = new bytes(ss.length / 2);\n        for (uint256 i = 0; i < ss.length / 2; ++i) {\n            r[i] = bytes1(\n                fromHexChar(uint8(ss[2 * i])) *\n                    16 +\n                    fromHexChar(uint8(ss[2 * i + 1]))\n            );\n        }\n\n        return r;\n    }\n}\n",
  "sourcePath": "/Users/johannHartmann 1/Documents/Code/mvp_tee/sc/contracts/Hellodata.sol",
  "compiler": {
    "name": "solc",
    "version": "0.5.16+commit.9c3226ce.Emscripten.clang"
  },
  "schemaVersion": "3.4.1",
  "updatedAt": "2021-10-03T13:45:14.854Z",
  "networkType": "ethereum",
  "devdoc": {
    "methods": {}
  },
  "userdoc": {
    "methods": {}
  }
}